S0200000436F6D666F7274666C61736865725F415454696E793133412E7372656308
S113000009C016C015C014C013C012C012C010C05D
S11300100FC00EC011241FBECFE9CDBF20E0A0E663
S1130020B0E001C01D92A637B207E1F745D000C188
S1130030E7CF1F920F920FB60F9211248F939F93C5
S1130040809174009091750001969093750080934F
S113005074009F918F910F900FBE0F901F90189571
S1130060609170008DEF860F873018F480E190E086
S1130070CED0089596B3892F8C70869586958093FB
S1130080730020916200211112C0809362008330BA
S113009059F080936F002091740030917500309373
S11300A064002093630003C082E080936E00929505
S11300B0917090937200089583E087BB92E09FBD96
S11300C083BF81E186BF84E089BF789480E190E0BA
S11300D097D080936D0002E011E0CCDFC0917400F2
S11300E0D0917500809174009091750020916B00FF
S11300F030916C00821B930B029708F455C08091D9
S1130100720090917100891761F081110AC0809189
S113011070008F5F80937000D0936800C093670075
S11301200DC080916700909168009E01281B390BD7
S1130130C901883E934010F018BAFECF80916E003A
S1130140811107C0C43F81E0D80708F100936E0015
S11301501EC08130E1F480917300833061F480919A
S1130160690090916A00029690936A0080936900F6
S1130170C29728F00AC010926A0010926900909108
S1130180700080916D00981738F018BAFECF8091F6
S11301906200833009F464DF8091720080937100FF
S11301A0D0936C00C0936B0080917300811195CF44
S11301B080916E00811191CF809162008330C9F0EB
S11301C08091630090916400C81BD90BD0936100A7
S11301D0C09360000EC080916F0088BB10936E00C6
S11301E080917400909175009093660080936500EF
S11301F074CF8091600090916100C29760F76DCFD9
S1130200E199FECF8EBBE09A99278DB30895262FEE
S1130210E199FECF8EBBE09A81500DB2021639F0FF
S11302201CBA2DBB0FB6F894E29AE19A0FBE08955A
S1070230F894FFCF6C
S9030000FC
