:1000000009C016C015C014C013C012C012C010C061
:100010000FC00EC011241FBECFE9CDBF20E0A0E667
:10002000B0E001C01D92A137B207E1F738D011C18D
:10003000E7CF1F920F920FB60F9211248F939F93C9
:1000400080916F0090917000019690937000809362
:100050006F009F918F910F900FBE0F901F9018957A
:1000600060916A00633018F080E190E0E1D008957B
:1000700086B3982F9C709695969590936D002091DD
:100080006000211102C0909360008295817080937E
:100090006C0080916E008F5F80936E00089583E006
:1000A00087BB92E09FBD83BF81E186BF84E089BFAB
:1000B000789480E190E0B5D080936700C1E0D2E011
:1000C000D7DF80916F009091700020916500309192
:1000D0006600821B930B039708F440C080916C006C
:1000E00090916B00891781F081110EC090916A0088
:1000F0009F5F90936A0020916F0030917000309361
:100100006200209361000FC020916F003091700059
:100110004091610050916200241B350B293E334011
:1001200010F018BAFECF9091680091110DC0209187
:100130006F00309170002C32314030F090916D00A2
:10014000933011F018BAFECF80936B0080916F004E
:1001500090917000909366008093650080916D008F
:10016000813031F128F08230C1F0833061F143C039
:100170008091680081114DC080916F009091700056
:10018000889708F49DCF8091690088BBC093680070
:100190001092700010926F003CC080916E00813010
:1001A00051F5D0936900109264001092630023C04F
:1001B00080916E008130F9F4C09369001092640060
:1001C0001092630018C080916800882371F08091BC
:1001D00063009091640001969093640080936300A3
:1001E0008D3B9240B0F018BAFECF80916000833012
:1001F00009F066CF35DF90916A008091670098170B
:1002000008F45ECF80916800882309F459CF18BAAA
:10021000FECF90916A0080916700981708F450CF44
:10022000F6CFE199FECF8EBBE09A99278DB3089562
:10023000262FE199FECF8EBBE09A81500DB20216B7
:1002400039F01CBA2DBB0FB6F894E29AE19A0FBEB2
:060250000895F894FFCFB1
:00000001FF
