:100000000AC019C018C017C016C04BC014C013C016
:1000100012C011C010C011271FBFCFE5D0E0DEBF56
:10002000CDBF20E0A0E4B0E001C01D93A634B2072C
:10003000E1F74BD07EC0E4CF48ED4CBF17BF16BFF1
:1000400044E047BB53E051B947BD46EC46BD4AE0EA
:100050004DBD4BB542604BBD1CBB42E04BBB46EEB9
:100060004DBB7894089549B3473310F413A908950C
:1000700059EC540F543230F442E043A940A14F5F91
:1000800040A9089551EA540F5F3130F441E043A98B
:1000900040A14F5F40A90895473910F043E043A9BC
:1000A00008951F930F930FB70F9310E04F935F9333
:1000B00044A155A14F5F5F4F55A944A95F914F914E
:1000C0000F910FBF0F911F911895B6DF44A155A155
:1000D000452BE1F3C8DF43A1413069F028F04230FD
:1000E00079F0433099F014C042A142B941E041A9EE
:1000F00015A914A910C040A1413051F442A908C06B
:1001000040A1413029F442E042A902C012B9FECF19
:1001100041A1442339F044A155A14C325140D0F2C1
:1001200012B9FECF44A155A14C35510798F212B92E
:06013000FECFF894FFCFA2
:00000001FF
