:100000000AC019C018C017C016C042C014C013C01F
:1000100012C011C010C011271FBFCFE5D0E0DEBF56
:10002000CDBF20E0A0E4B0E001C01D93A534B2072D
:10003000E1F742D072C0E4CF48ED4CBF17BF16BF06
:1000400044E047BB43E041B947BD48EE46BD4AE006
:100050004DBD4BB542604BBD1CBB42E04BBB46EEB9
:100060004DBB7894089549B3453B18F043E042A94D
:10007000089554EC540F593218F442E042A90895FF
:1000800048574F3118F441E042A9089512A9089544
:100090001F930F930FB70F9310E04F935F9343A1FC
:1000A00054A14F5F5F4F54A943A95F914F910F91A6
:1000B0000FBF0F911F911895BFDFD5DF42A14130CF
:1000C000D1F028F04230D1F04330D9F01CC043A128
:1000D00054A142335107B8F443A154A14B30510706
:1000E00090F040A1411312C041A142B941E040A9A2
:1000F00014A913A90BC041E041A905C042E041A9E0
:1001000002C012B9FECF40A14423B9F243A154A1C9
:0E0110004C32514090F212B9FECFF894FFCF5E
:00000001FF
