S0200000436F6D666F7274666C61736865725F415454696E793133412E7372656308
S113000009C016C015C014C013C012C012C010C05D
S11300100FC00EC011241FBECFE9CDBF20E0A0E663
S1130020B0E001C01D92A637B207E1F744D00BC17E
S1130030E7CF1F920F920FB60F9211248F939F93C5
S1130040809174009091750001969093750080934F
S113005074009F918F910F900FBE0F901F90189571
S11300609DEF980F973020F4682F80E190E0DAC07C
S1130070089596B3892F8C70869586958093730026
S113008020916200211112C080936200833059F0E4
S113009080936F0020917400309175003093640058
S11300A02093630003C082E080936E009295917068
S11300B090937200089583E087BB92E09FBD83BF55
S11300C081E186BF84E089BF789480E190E0A3D089
S11300D080936D008350873010F083E0C1DF12E01D
S11300E001E0C7DFC0917400D09175008091740065
S11300F09091750020916B0030916C00821B930BE2
S1130100029708F45CC08091720090917100891785
S113011061F081110AC0809170008F5F809370003C
S1130120D0936800C09367000DC0809167009091E0
S113013068009E01281B390BC901883E934010F0CA
S113014018BAFECF80916E00811106C0C43F81E0D1
S1130150D80710F010936E0080916E00813001F585
S113016080917300833051F48091690090916A000A
S1130170029690936A008093690004C010926A000A
S1130180109269008091690090916A00C29730F4DE
S11301909091700080916D00981748F018BAFECFC6
S11301A080916200833019F48091700059DF80914E
S11301B0720080937100D0936C00C0936B008091A7
S11301C0730081118ECF80916E0081118ACF80914E
S11301D06200833051F08091630090916400C81BE9
S11301E0D90BD0936100C09360008091600090911E
S11301F061008436910508F474CF80916F0088BB48
S113020000936E0080917400909175009093660045
S11302108093650066CFE199FECF8EBBE09A992763
S11302208DB30895262FE199FECF8EBBE09A8150BD
S11302300DB2021639F01CBA2DBB0FB6F894E29A2F
S10D0240E19A0FBE0895F894FFCF71
S9030000FC
